:100000000C9450000C94BD000C94BD000C94BD00E9
:100010000C94BD000C94BD000C94BD000C94BD006C
:100020000C94BD000C94BD000C94BD000C94BD005C
:100030000C94BD000C94BD000C94BD000C94BD004C
:100040000C94BD000C94BD000C94BD000C94BD003C
:100050000C94BD000C94BD000C94BD000C94BD002C
:100060000C94BD000C94BD000C94BD000C94BD001C
:100070000C94BD000C94BD000C94BD000C94BD000C
:100080000C94BD000C94BD000C94BD000C94BD00FC
:100090000C94BD000C94BD000C94BD000C94BD00EC
:1000A00011241FBECFEFCDBFDFE3DEBFE0EAF0E0FB
:1000B00040E017C0B591A59135912591059107FDB7
:1000C0000CC095918591EF01F92FE82F05900D92C5
:1000D000A217B307D9F7FE0104C01D92A217B307F8
:1000E000E1F7E03AF40731F70E947A000C94B2008D
:0400F000F894FFCFB2
:1000F400CF93DF93CDB7DEB72897CDBFDEBF85E0C2
:1001040090E089839A8389819A81809300048FE1A6
:1001140090E08B839C838B819C818093200488E076
:1001240090E08D839E838D819E81809340042B81FA
:100134003C814D815E8189819A819927840F911D2B
:10014400820F911D8F8398878F8198858093600497
:1001540080E090E02896CDBFDEBFDF91CF91089577
:10016400EC010E94C2000E94C100CE010E94C300A3
:06017400CE010E94BF0055
:04017A000C940000E1
:04017E000E94780063
:020182000895DE
:020184000895DC
:020186000895DA
:00000001FF
